:030000000200F308
:0C00F300787FE4F6D8FD75812902013AFF
:10023000202008003F0006005B004F0066006D00B4
:100240007D0007007F006F0077007C0039005E00B2
:03025000790071C1
:060254008F807F017E0097
:10025A00EF1FAC0670011E4C600A7D027CEFDCFECB
:04026A00DDFC80EC4B
:01026E00226D
:10017F00EE7058EF14B40800505190019775F003CA
:10018F00A4C58325F0C583730201AF0201B3020139
:10019F00B70201BB0201BF0201C60201CD0201D4A9
:1001AF00D2B6800ED2B68011D2B68014D2B68017D6
:1001BF00C2B6C2B5C2B422C2B6C2B5D2B422C2B69A
:0C01CF00D2B5C2B422C2B6D2B5D2B4225E
:10000300E4FBFA7528007529017F047E0012017F45
:10001300D3EB94E8EA9403401D7C037DE8AF03AE81
:10002300021201DB7C007D0A1201DBED25E02408CE
:10003300F808E6FF80027F00120254E4F5807F0394
:10004300FE12017FD3EB9464EA9400401D7C007D93
:1000530064AF03AE021201DB7C007D0A1201DBED0B
:1000630025E02408F808E6FF80027F00120254E42A
:10007300F5807F02FE12017FD3EB940AEA940040DD
:100083001D7C007D0AAF03AE021201DB7C007D0AFA
:100093001201DBED25E02408F808E6FF80027F006B
:1000A300120254E4F5807F01FE12017F7C007D0A79
:1000B300AF03AE021201DBED25E02408F808E6F5F4
:1000C30080120256E4F5800529E52970020528C34C
:1000D3009432E5289400500302000C0BBB00010A84
:1000E300EB64107003EA6427600302000602000356
:1000FF00020003E493A3F8E493A34003F68001F214
:10010F0008DFF48029E493A3F85407240CC8C33301
:10011F00C4540F4420C8834004F456800146F6DFD0
:10012F00E4800B0102040810204080900230E47E2E
:10013F00019360BCA3FF543F30E509541FFEE493C5
:10014F00A360010ECF54C025E060A840B8E493A38C
:10015F00FAE493A3F8E493A3C8C582C8CAC583CAB7
:10016F00F0A3C8C582C8CAC583CADFE9DEE780BE6F
:0102530000AA
:1001DB00BC000BBE0029EF8DF084FFADF022E4CC08
:1001EB00F875F008EF2FFFEE33FEEC33FCEE9DECD1
:1001FB00984005FCEE9DFE0FD5F0E9E4CEFD22ED17
:10020B00F8F5F0EE8420D21CFEADF075F008EF2F60
:10021B00FFED33FD4007985006D5F0F222C398FD51
:05022B000FD5F0EA22EE
:00000001FF
