:0300000002018C6E
:0C018C00787FE4F6D8FD7581290201D3CC
:030286000128004C
:1002C2001202D61200038F28E52860F7FD7F011283
:0402D200021880EF9F
:10028900202008003F0006005B004F0066006D005B
:100299007D0007007F006F0077007C0039005E0059
:0302A90079007168
:0402D600E4F58022A9
:10021800EDD3940F4002E4FDEF14B408005054905D
:10022800023575F003A4C58325F0C5837302024D1A
:1002380002025102025502025902025D02026502DF
:10024800026D020275D2B6800ED2B68012D2B68086
:1002580016D2B6801AC2B6C2B5C2B48016C2B6C229
:10026800B5D2B4800EC2B6D2B5C2B48006C2B6D278
:0E027800B5D2B4ED25E02408F808E6F58022A2
:10000300E4F5297590FFC2932097137F14FE120223
:10001300AD3097FD7F147E001202AD752901209645
:10002300147F147E001202AD3096FD7F147E001201
:1000330002AD7529052095147F147E001202AD30A0
:1000430095FD7F147E001202AD7529092094147F5B
:10005300147E001202AD3094FD7F147E001202ADB7
:1000630075290D7590FFC2922097147F147E00129C
:1000730002AD3097FD7F147E001202AD7529022078
:1000830096147F147E001202AD3096FD7F147E001D
:100093001202AD7529062095147F147E001202AD5D
:1000A3003095FD7F147E001202AD75290A20941449
:1000B3007F147E001202AD3094FD7F147E00120285
:1000C300AD75290E7590FFC2912097147F147E00A1
:1000D3001202AD3097FD7F147E001202AD75290325
:1000E3002096147F147E001202AD3096FD7F147E9D
:1000F300001202AD7529072095147F147E001202A9
:10010300AD3095FD7F147E001202AD75290B20944E
:10011300147F147E001202AD3094FD7F147E001212
:1001230002AD75290F7590FFC2902097147F147E3E
:10013300001202AD3097FD7F147E001202AD7529C7
:10014300042096147F147E001202AD3096FD7F14B6
:100153007E001202AD7529082095147F147E0012CB
:1001630002AD3095FD7F147E001202AD75290C207F
:1001730094147F147E001202AD3094FD7F147E0030
:080183001202AD752910AF292D
:01018B002251
:1002AD00EF1FAC0670011E4C600A7D027CEFDCFE78
:0402BD00DDFC80ECF8
:0102C100221A
:100198000202C2E493A3F8E493A34003F68001F2B9
:1001A80008DFF48029E493A3F85407240CC8C33368
:1001B800C4540F4420C8834004F456800146F6DF37
:1001C800E4800B0102040810204080900286E47E3F
:1001D800019360BCA3FF543F30E509541FFEE4932C
:1001E800A360010ECF54C025E060A840B8E493A3F3
:1001F800FAE493A3F8E493A3C8C582C8CAC583CA1E
:10020800F0A3C8C582C8CAC583CADFE9DEE780BED5
:0102AC000051
:00000001FF
