:03000000020238C1
:0C023800787FE4F6D8FD75813702027F64
:1003FF00202208003F0006005B004F0066006D00E2
:10040F007D0007007F006F0077007C0039005E00E1
:05041F007900710000EE
:10042500EF1FAC0670011E4C600A7D027CEFDCFEFE
:04043500DDFC80EC7E
:0104390022A0
:1002C400EE7058EF14B4080050519002DC75F0033E
:1002D400A4C58325F0C583730202F40202F8020266
:1002E400FC02030002030402030B020312020319BB
:1002F400D2B6800ED2B68011D2B68014D2B6801790
:10030400C2B6C2B5C2B422C2B6C2B5D2B422C2B653
:0C031400D2B5C2B422C2B6D2B5D2B42217
:1003CE00E4FAF9F8AF35AE34AD33AC32120195E440
:1003DE007B0AFAF9F8120195EB25E02408F808E6F5
:0603EE00F5807F647E0033
:0B03F400EF1FAC0670011E4C70F622DB
:10032000EE7058EF14B40800505190033875F00384
:10033000A4C58325F0C5837302035002035402034E
:100340005B02035F02036602036A02037102037524
:10035000C2B48002D2B4C2B5D2B622C2B48002D234
:10036000B4D2B5D2B622C2B48002D2B4C2B5C2B63B
:0C03700022C2B48002D2B4D2B5C2B622C0
:080003008F358E348D338C32F1
:10000B00E4F536F537F536F5377F807E967D987CAF
:10001B0000AB35AA34A933A832C312022740157F8F
:10002B00087E001202C47B807A96799878001203BE
:10003B00D2E4F5807F407E427D0F7C00AB35AA3445
:10004B00A933A832C312022740157F077E00120284
:10005B00C47B407A42790F78001203D2E4F5807F9B
:10006B00A07E867D017C00AB35AA34A933A832C3B0
:10007B0012022740157F067E001202C47BA07A86EF
:10008B00790178001203D2E4F580E47F107E27FD1E
:10009B00FCAB35AA34A933A832C312022740127F16
:1000AB00057E001202C4E47B107A271203D0E4F51C
:1000BB0080E47FE87E03FDFCAB35AA34A933A8327C
:1000CB00C312022740127F047E001202C4E47BE8B5
:1000DB007A031203D0E4F580E47F64FEFDFCAB35BC
:1000EB00AA34A933A832C3120227400F7F037E0024
:1000FB001202C47B641203CEE4F580E47F0AFEFD9A
:10010B00FCAB35AA34A933A832C3120227400F7FA8
:10011B00027E001202C47B0A1203CEE4F5807F013B
:10012B007E001202C4E47B0AFAF9F8AF35AE34ADA7
:10013B0033AC321203E3E4F5800537E53770020583
:0D014B0036C39464E536940050030200149E
:010158002284
:10037C00E4F52DF52CF52BF52AF531F530F52FF5A7
:10038C002EE4F52DF52CF52BF52A7F007EE17DF57D
:10039C007C05AB2DAA2CA92BA82AC312022750E14D
:1003AC00AF2DAE2CAD2BAC2A120003E52D2401F59C
:1003BC002DE4352CF52CE4352BF52BE4352AF52AD8
:0203CC0080C8E7
:1002440002037CE493A3F8E493A34003F68001F251
:1002540008DFF48029E493A3F85407240CC8C333BB
:10026400C4540F4420C8834004F456800146F6DF8A
:10027400E4800B01020408102040809003FFE47E18
:10028400019360BCA3FF543F30E509541FFEE4937F
:10029400A360010ECF54C025E060A840B8E493A346
:1002A400FAE493A3F8E493A3C8C582C8CAC583CA71
:1002B400F0A3C8C582C8CAC583CADFE9DEE780BE29
:0104240000D7
:1001590075F008758200EF2FFFEE33FECD33CDCC5D
:1001690033CCC58233C5829BED9AEC99E5829840E0
:100179000CF582EE9BFEED9AFDEC99FC0FD5F0D6BD
:10018900E4CEFBE4CDFAE4CCF9A88222B800C1B9E7
:100199000059BA002DEC8BF084CFCECDFCE5F0CB25
:1001A900F97818EF2FFFEE33FEED33FDEC33FCEB5E
:1001B90033FB10D703994004EB99FB0FD8E5E4F919
:1001C900FA227818EF2FFFEE33FEED33FDEC33FC06
:1001D900C933C910D7059BE99A4007EC9BFCE99AFA
:1001E900F90FD8E0E4C9FAE4CCFB2275F010EF2F3F
:1001F900FFEE33FEED33FDCC33CCC833C810D7073F
:100209009BEC9AE899400AED9BFDEC9AFCE899F879
:0E0219000FD5F0DAE4CDFBE4CCFAE4C8F9220C
:10022700EB9FF5F0EA9E42F0E99D42F0E89C45F02D
:0102370022A4
:00000001FF
