:03000000020003F8
:0C000300787FE4F6D8FD75810802004A01
:0300D6000108001E
:1000C100EF1FAC0670011E4C600A7D027CEFDCFE66
:0400D100DDFC80ECE6
:0100D5002208
:10008F002090FD7F0A7E001200C13090FD7F647EBC
:10009F00001200C1AF087401A807088002C333D84B
:1000AF00FCF4F5A00508E508D3940740D3E4F50860
:0200BF0080CEF1
:10000F0002008FE493A3F8E493A34003F68001F278
:10001F0008DFF48029E493A3F85407240CC8C333F2
:10002F00C4540F4420C8834004F456800146F6DFC1
:10003F00E4800B01020408102040809000D6E47E7B
:10004F00019360BCA3FF543F30E509541FFEE493B6
:10005F00A360010ECF54C025E060A840B8E493A37D
:10006F00FAE493A3F8E493A3C8C582C8CAC583CAA8
:10007F00F0A3C8C582C8CAC583CADFE9DEE780BE60
:0100D9000026
:00000001FF
