:0300000002000EED
:0C000E00787FE4F6D8FD758108020055EB
:050003001200B780FEB1
:0300CE0001080026
:1000B7005389F0438901758A18758CFCC28DD28CDF
:0700C700D2A9D2AFC2B92299
:03000B0002009A56
:10009A00C0E0C0D0758A18758CFCE508D39464401A
:0D00AA0005750800B2A00508D0D0D0E032E6
:10001A00020003E493A3F8E493A34003F68001F2F9
:10002A0008DFF48029E493A3F85407240CC8C333E7
:10003A00C4540F4420C8834004F456800146F6DFB6
:10004A00E4800B01020408102040809000CEE47E78
:10005A00019360BCA3FF543F30E509541FFEE493AB
:10006A00A360010ECF54C025E060A840B8E493A372
:10007A00FAE493A3F8E493A3C8C582C8CAC583CA9D
:10008A00F0A3C8C582C8CAC583CADFE9DEE780BE55
:0100D100002E
:00000001FF
