:0300000002000EED
:0C000E00787FE4F6D8FD75810B020055E8
:09018400010800010900010A0054
:03000B000200FBF5
:1000FB00C0E0C0D075D000C000C007758A18758CE1
:10010B00FCE508D394644023750800E509700EAF35
:10011B00A07801EF08800123D8FDFF800CAFA078F9
:10012B0001EF08800103D8FDFF8FA00508D007D091
:06013B0000D0D0D0E0323C
:1001410012015875A0FE12009A8F0AE50AB401F651
:07015100050953090180EFCD
:100158005389F0438901758A18758CFCC28DD28C3D
:07016800D2A9D2AFC2B922F7
:10009A00E4F50B2090137F14FE12016F3090FD7F60
:1000AA00147E0012016F750B012091147F147E00DB
:1000BA0012016F3091FD7F147E0012016F750B02E1
:1000CA002094147F147E0012016F3094FD7F147EF9
:1000DA000012016F750B032095147F147E00120124
:1000EA006F3095FD7F147E0012016F750B04AF0B04
:0100FA0022E3
:10016F00EF1FAC0670011E4C600A7D027CEFDCFEB7
:04017F00DDFC80EC37
:010183002259
:10001A00020141E493A3F8E493A34003F68001F2BA
:10002A0008DFF48029E493A3F85407240CC8C333E7
:10003A00C4540F4420C8834004F456800146F6DFB6
:10004A00E4800B0102040810204080900184E47EC1
:10005A00019360BCA3FF543F30E509541FFEE493AB
:10006A00A360010ECF54C025E060A840B8E493A372
:10007A00FAE493A3F8E493A3C8C582C8CAC583CA9D
:10008A00F0A3C8C582C8CAC583CADFE9DEE780BE55
:01018D000071
:00000001FF
